{
  "contractName": "Dex",
  "abi": [
    {
      "anonymous": false,
      "inputs": [
        {
          "indexed": true,
          "internalType": "address",
          "name": "previousOwner",
          "type": "address"
        },
        {
          "indexed": true,
          "internalType": "address",
          "name": "newOwner",
          "type": "address"
        }
      ],
      "name": "OwnershipTransferred",
      "type": "event"
    },
    {
      "inputs": [
        {
          "internalType": "bytes32",
          "name": "",
          "type": "bytes32"
        },
        {
          "internalType": "uint256",
          "name": "",
          "type": "uint256"
        },
        {
          "internalType": "uint256",
          "name": "",
          "type": "uint256"
        }
      ],
      "name": "OrderBook",
      "outputs": [
        {
          "internalType": "uint256",
          "name": "id",
          "type": "uint256"
        },
        {
          "internalType": "address",
          "name": "trader",
          "type": "address"
        },
        {
          "internalType": "bytes32",
          "name": "ticker",
          "type": "bytes32"
        },
        {
          "internalType": "enum Dex.Side",
          "name": "side",
          "type": "uint8"
        },
        {
          "internalType": "uint256",
          "name": "amount",
          "type": "uint256"
        },
        {
          "internalType": "uint256",
          "name": "price",
          "type": "uint256"
        },
        {
          "internalType": "uint256",
          "name": "availableFill",
          "type": "uint256"
        }
      ],
      "stateMutability": "view",
      "type": "function",
      "constant": true
    },
    {
      "inputs": [
        {
          "internalType": "bytes32",
          "name": "ticker",
          "type": "bytes32"
        },
        {
          "internalType": "address",
          "name": "tokenAddress",
          "type": "address"
        }
      ],
      "name": "addToken",
      "outputs": [],
      "stateMutability": "nonpayable",
      "type": "function"
    },
    {
      "inputs": [
        {
          "internalType": "address",
          "name": "",
          "type": "address"
        },
        {
          "internalType": "bytes32",
          "name": "",
          "type": "bytes32"
        }
      ],
      "name": "balance",
      "outputs": [
        {
          "internalType": "uint256",
          "name": "",
          "type": "uint256"
        }
      ],
      "stateMutability": "view",
      "type": "function",
      "constant": true
    },
    {
      "inputs": [
        {
          "internalType": "bytes32",
          "name": "ticker",
          "type": "bytes32"
        },
        {
          "internalType": "uint256",
          "name": "amount",
          "type": "uint256"
        }
      ],
      "name": "deposit",
      "outputs": [],
      "stateMutability": "nonpayable",
      "type": "function"
    },
    {
      "inputs": [],
      "name": "depositETH",
      "outputs": [],
      "stateMutability": "payable",
      "type": "function",
      "payable": true
    },
    {
      "inputs": [],
      "name": "getETH",
      "outputs": [
        {
          "internalType": "uint256",
          "name": "",
          "type": "uint256"
        }
      ],
      "stateMutability": "view",
      "type": "function",
      "constant": true
    },
    {
      "inputs": [],
      "name": "owner",
      "outputs": [
        {
          "internalType": "address",
          "name": "",
          "type": "address"
        }
      ],
      "stateMutability": "view",
      "type": "function",
      "constant": true
    },
    {
      "inputs": [],
      "name": "renounceOwnership",
      "outputs": [],
      "stateMutability": "nonpayable",
      "type": "function"
    },
    {
      "inputs": [
        {
          "internalType": "uint256",
          "name": "",
          "type": "uint256"
        }
      ],
      "name": "tokenlist",
      "outputs": [
        {
          "internalType": "bytes32",
          "name": "",
          "type": "bytes32"
        }
      ],
      "stateMutability": "view",
      "type": "function",
      "constant": true
    },
    {
      "inputs": [
        {
          "internalType": "bytes32",
          "name": "",
          "type": "bytes32"
        }
      ],
      "name": "tokenmapping",
      "outputs": [
        {
          "internalType": "bytes32",
          "name": "ticker",
          "type": "bytes32"
        },
        {
          "internalType": "address",
          "name": "tokenAddress",
          "type": "address"
        }
      ],
      "stateMutability": "view",
      "type": "function",
      "constant": true
    },
    {
      "inputs": [
        {
          "internalType": "address",
          "name": "newOwner",
          "type": "address"
        }
      ],
      "name": "transferOwnership",
      "outputs": [],
      "stateMutability": "nonpayable",
      "type": "function"
    },
    {
      "inputs": [
        {
          "internalType": "bytes32",
          "name": "ticker",
          "type": "bytes32"
        },
        {
          "internalType": "uint256",
          "name": "amount",
          "type": "uint256"
        }
      ],
      "name": "withdraw",
      "outputs": [],
      "stateMutability": "nonpayable",
      "type": "function"
    },
    {
      "inputs": [
        {
          "internalType": "bytes32",
          "name": "ticker",
          "type": "bytes32"
        },
        {
          "internalType": "enum Dex.Side",
          "name": "side",
          "type": "uint8"
        }
      ],
      "name": "getOrderBook",
      "outputs": [
        {
          "components": [
            {
              "internalType": "uint256",
              "name": "id",
              "type": "uint256"
            },
            {
              "internalType": "address",
              "name": "trader",
              "type": "address"
            },
            {
              "internalType": "bytes32",
              "name": "ticker",
              "type": "bytes32"
            },
            {
              "internalType": "enum Dex.Side",
              "name": "side",
              "type": "uint8"
            },
            {
              "internalType": "uint256",
              "name": "amount",
              "type": "uint256"
            },
            {
              "internalType": "uint256",
              "name": "price",
              "type": "uint256"
            },
            {
              "internalType": "uint256",
              "name": "availableFill",
              "type": "uint256"
            }
          ],
          "internalType": "struct Dex.Order[]",
          "name": "",
          "type": "tuple[]"
        }
      ],
      "stateMutability": "view",
      "type": "function",
      "constant": true
    },
    {
      "inputs": [
        {
          "internalType": "bytes32",
          "name": "ticker",
          "type": "bytes32"
        },
        {
          "internalType": "enum Dex.Side",
          "name": "side",
          "type": "uint8"
        },
        {
          "internalType": "uint256",
          "name": "amount",
          "type": "uint256"
        },
        {
          "internalType": "uint256",
          "name": "price",
          "type": "uint256"
        }
      ],
      "name": "createlimitOrder",
      "outputs": [],
      "stateMutability": "nonpayable",
      "type": "function"
    },
    {
      "inputs": [
        {
          "internalType": "bytes32",
          "name": "ticker",
          "type": "bytes32"
        },
        {
          "internalType": "enum Dex.Side",
          "name": "side",
          "type": "uint8"
        },
        {
          "internalType": "uint256",
          "name": "orderamount",
          "type": "uint256"
        }
      ],
      "name": "createMarketOrder",
      "outputs": [],
      "stateMutability": "nonpayable",
      "type": "function"
    }
  ],
  "bytecode": "0x60806040523480156200001157600080fd5b50600062000024620000c860201b60201c565b9050806000806101000a81548173ffffffffffffffffffffffffffffffffffffffff021916908373ffffffffffffffffffffffffffffffffffffffff1602179055508073ffffffffffffffffffffffffffffffffffffffff16600073ffffffffffffffffffffffffffffffffffffffff167f8be0079c531659141344cd1fd0a4f28419497f9722a3daafe3b4186f6b6457e060405160405180910390a350620000d0565b600033905090565b613a4880620000e06000396000f3fe6080604052600436106100e85760003560e01c8063715018a61161008a578063ba58ea6811610059578063ba58ea68146102e5578063f2fde38b14610322578063f6326fb31461034b578063feb8be8214610355576100e8565b8063715018a6146102375780638da5cb5b1461024e5780639776aacf14610279578063acc02df9146102a2576100e8565b80631de26e16116100c65780631de26e161461016a5780634f3cb5411461019357806350b20afd146101d05780635e7a9d47146101f9576100e8565b80630263ba84146100ed578063040cf0201461011657806314f6c3be1461013f575b600080fd5b3480156100f957600080fd5b50610114600480360381019061010f9190612ff8565b610392565b005b34801561012257600080fd5b5061013d6004803603810190610138919061305b565b6112ef565b005b34801561014b57600080fd5b506101546115a9565b6040516101619190613692565b60405180910390f35b34801561017657600080fd5b50610191600480360381019061018c919061305b565b611621565b005b34801561019f57600080fd5b506101ba60048036038101906101b591906130e6565b61188d565b6040516101c7919061354e565b60405180910390f35b3480156101dc57600080fd5b506101f760048036038101906101f29190612fa9565b6118b1565b005b34801561020557600080fd5b50610220600480360381019061021b9190612f08565b6125ba565b60405161022e929190613569565b60405180910390f35b34801561024357600080fd5b5061024c6125fe565b005b34801561025a57600080fd5b50610263612738565b60405161027091906134b1565b60405180910390f35b34801561028557600080fd5b506102a0600480360381019061029b9190612f31565b612761565b005b3480156102ae57600080fd5b506102c960048036038101906102c49190613097565b61289c565b6040516102dc97969594939291906136ad565b60405180910390f35b3480156102f157600080fd5b5061030c60048036038101906103079190612f6d565b612935565b604051610319919061352c565b60405180910390f35b34801561032e57600080fd5b5061034960048036038101906103449190612e7a565b612b00565b005b610353612ca9565b005b34801561036157600080fd5b5061037c60048036038101906103779190612ea3565b612da2565b6040516103899190613692565b60405180910390f35b60008360018111156103cd577f4e487b7100000000000000000000000000000000000000000000000000000000600052602160045260246000fd5b141561049d576103e68183612dc790919063ffffffff16565b600360003373ffffffffffffffffffffffffffffffffffffffff1673ffffffffffffffffffffffffffffffffffffffff16815260200190815260200160002060007f45544800000000000000000000000000000000000000000000000000000000008152602001908152602001600020541015610498576040517f08c379a000000000000000000000000000000000000000000000000000000000815260040161048f90613672565b60405180910390fd5b610531565b81600360003373ffffffffffffffffffffffffffffffffffffffff1673ffffffffffffffffffffffffffffffffffffffff1681526020019081526020016000206000868152602001908152602001600020541015610530576040517f08c379a0000000000000000000000000000000000000000000000000000000008152600401610527906135f2565b60405180910390fd5b5b60046000858152602001908152602001600020600084600181111561057f577f4e487b7100000000000000000000000000000000000000000000000000000000600052602160045260246000fd5b81526020019081526020016000206040518060e001604052806004600088815260200190815260200160002060008760018111156105e6577f4e487b7100000000000000000000000000000000000000000000000000000000600052602160045260246000fd5b81526020019081526020016000208054905081526020013373ffffffffffffffffffffffffffffffffffffffff168152602001868152602001856001811115610658577f4e487b7100000000000000000000000000000000000000000000000000000000600052602160045260246000fd5b81526020018481526020018381526020018481525090806001815401808255809150506001900390600052602060002090600702016000909190919091506000820151816000015560208201518160010160006101000a81548173ffffffffffffffffffffffffffffffffffffffff021916908373ffffffffffffffffffffffffffffffffffffffff1602179055506040820151816002015560608201518160030160006101000a81548160ff02191690836001811115610742577f4e487b7100000000000000000000000000000000000000000000000000000000600052602160045260246000fd5b02179055506080820151816004015560a0820151816005015560c08201518160060155505060006004600086815260200190815260200160002060008560018111156107b7577f4e487b7100000000000000000000000000000000000000000000000000000000600052602160045260246000fd5b815260200190815260200160002090506000808280549050116107db5760006107ed565b600182805490506107ec9190613816565b5b905060006001811115610829577f4e487b7100000000000000000000000000000000000000000000000000000000600052602160045260246000fd5b856001811115610862577f4e487b7100000000000000000000000000000000000000000000000000000000600052602160045260246000fd5b14801561086f5750600081115b15610d6d575b6000811115610d68578160018261088c9190613816565b815481106108c3577f4e487b7100000000000000000000000000000000000000000000000000000000600052603260045260246000fd5b90600052602060002090600702016005015482828154811061090e577f4e487b7100000000000000000000000000000000000000000000000000000000600052603260045260246000fd5b9060005260206000209060070201600501541115610d50576000826001836109369190613816565b8154811061096d577f4e487b7100000000000000000000000000000000000000000000000000000000600052603260045260246000fd5b90600052602060002090600702016040518060e0016040529081600082015481526020016001820160009054906101000a900473ffffffffffffffffffffffffffffffffffffffff1673ffffffffffffffffffffffffffffffffffffffff1673ffffffffffffffffffffffffffffffffffffffff168152602001600282015481526020016003820160009054906101000a900460ff166001811115610a3b577f4e487b7100000000000000000000000000000000000000000000000000000000600052602160045260246000fd5b6001811115610a73577f4e487b7100000000000000000000000000000000000000000000000000000000600052602160045260246000fd5b815260200160048201548152602001600582015481526020016006820154815250509050828281548110610ad0577f4e487b7100000000000000000000000000000000000000000000000000000000600052603260045260246000fd5b906000526020600020906007020183600184610aec9190613816565b81548110610b23577f4e487b7100000000000000000000000000000000000000000000000000000000600052603260045260246000fd5b9060005260206000209060070201600082015481600001556001820160009054906101000a900473ffffffffffffffffffffffffffffffffffffffff168160010160006101000a81548173ffffffffffffffffffffffffffffffffffffffff021916908373ffffffffffffffffffffffffffffffffffffffff160217905550600282015481600201556003820160009054906101000a900460ff168160030160006101000a81548160ff02191690836001811115610c0a577f4e487b7100000000000000000000000000000000000000000000000000000000600052602160045260246000fd5b021790555060048201548160040155600582015481600501556006820154816006015590505080838381548110610c6a577f4e487b7100000000000000000000000000000000000000000000000000000000600052603260045260246000fd5b90600052602060002090600702016000820151816000015560208201518160010160006101000a81548173ffffffffffffffffffffffffffffffffffffffff021916908373ffffffffffffffffffffffffffffffffffffffff1602179055506040820151816002015560608201518160030160006101000a81548160ff02191690836001811115610d24577f4e487b7100000000000000000000000000000000000000000000000000000000600052602160045260246000fd5b02179055506080820151816004015560a0820151816005015560c0820151816006015590505050610d55565b610d68565b8080610d60906138c1565b915050610875565b6112e7565b600180811115610da6577f4e487b7100000000000000000000000000000000000000000000000000000000600052602160045260246000fd5b856001811115610ddf577f4e487b7100000000000000000000000000000000000000000000000000000000600052602160045260246000fd5b148015610dec5750600081115b156112e6575b60008111156112e55781600182610e099190613816565b81548110610e40577f4e487b7100000000000000000000000000000000000000000000000000000000600052603260045260246000fd5b906000526020600020906007020160050154828281548110610e8b577f4e487b7100000000000000000000000000000000000000000000000000000000600052603260045260246000fd5b90600052602060002090600702016005015410156112cd57600082600183610eb39190613816565b81548110610eea577f4e487b7100000000000000000000000000000000000000000000000000000000600052603260045260246000fd5b90600052602060002090600702016040518060e0016040529081600082015481526020016001820160009054906101000a900473ffffffffffffffffffffffffffffffffffffffff1673ffffffffffffffffffffffffffffffffffffffff1673ffffffffffffffffffffffffffffffffffffffff168152602001600282015481526020016003820160009054906101000a900460ff166001811115610fb8577f4e487b7100000000000000000000000000000000000000000000000000000000600052602160045260246000fd5b6001811115610ff0577f4e487b7100000000000000000000000000000000000000000000000000000000600052602160045260246000fd5b81526020016004820154815260200160058201548152602001600682015481525050905082828154811061104d577f4e487b7100000000000000000000000000000000000000000000000000000000600052603260045260246000fd5b9060005260206000209060070201836001846110699190613816565b815481106110a0577f4e487b7100000000000000000000000000000000000000000000000000000000600052603260045260246000fd5b9060005260206000209060070201600082015481600001556001820160009054906101000a900473ffffffffffffffffffffffffffffffffffffffff168160010160006101000a81548173ffffffffffffffffffffffffffffffffffffffff021916908373ffffffffffffffffffffffffffffffffffffffff160217905550600282015481600201556003820160009054906101000a900460ff168160030160006101000a81548160ff02191690836001811115611187577f4e487b7100000000000000000000000000000000000000000000000000000000600052602160045260246000fd5b0217905550600482015481600401556005820154816005015560068201548160060155905050808383815481106111e7577f4e487b7100000000000000000000000000000000000000000000000000000000600052603260045260246000fd5b90600052602060002090600702016000820151816000015560208201518160010160006101000a81548173ffffffffffffffffffffffffffffffffffffffff021916908373ffffffffffffffffffffffffffffffffffffffff1602179055506040820151816002015560608201518160030160006101000a81548160ff021916908360018111156112a1577f4e487b7100000000000000000000000000000000000000000000000000000000600052602160045260246000fd5b02179055506080820151816004015560a0820151816005015560c08201518160060155905050506112d2565b6112e5565b80806112dd906138c1565b915050610df2565b5b5b505050505050565b81600073ffffffffffffffffffffffffffffffffffffffff166001600083815260200190815260200160002060010160009054906101000a900473ffffffffffffffffffffffffffffffffffffffff1673ffffffffffffffffffffffffffffffffffffffff161415611396576040517f08c379a000000000000000000000000000000000000000000000000000000000815260040161138d90613652565b60405180910390fd5b81600360003373ffffffffffffffffffffffffffffffffffffffff1673ffffffffffffffffffffffffffffffffffffffff1681526020019081526020016000206000858152602001908152602001600020541015611429576040517f08c379a000000000000000000000000000000000000000000000000000000000815260040161142090613632565b60405180910390fd5b61148c82600360003373ffffffffffffffffffffffffffffffffffffffff1673ffffffffffffffffffffffffffffffffffffffff168152602001908152602001600020600086815260200190815260200160002054612ddd90919063ffffffff16565b600360003373ffffffffffffffffffffffffffffffffffffffff1673ffffffffffffffffffffffffffffffffffffffff1681526020019081526020016000206000858152602001908152602001600020819055506001600084815260200190815260200160002060010160009054906101000a900473ffffffffffffffffffffffffffffffffffffffff1673ffffffffffffffffffffffffffffffffffffffff1663a9059cbb33846040518363ffffffff1660e01b8152600401611551929190613503565b602060405180830381600087803b15801561156b57600080fd5b505af115801561157f573d6000803e3d6000fd5b505050506040513d601f19601f820116820180604052508101906115a39190612edf565b50505050565b6000600360003373ffffffffffffffffffffffffffffffffffffffff1673ffffffffffffffffffffffffffffffffffffffff16815260200190815260200160002060007f4554480000000000000000000000000000000000000000000000000000000000815260200190815260200160002054905090565b81600073ffffffffffffffffffffffffffffffffffffffff166001600083815260200190815260200160002060010160009054906101000a900473ffffffffffffffffffffffffffffffffffffffff1673ffffffffffffffffffffffffffffffffffffffff1614156116c8576040517f08c379a00000000000000000000000000000000000000000000000000000000081526004016116bf90613652565b60405180910390fd5b6000821161170b576040517f08c379a0000000000000000000000000000000000000000000000000000000008152600401611702906135b2565b60405180910390fd5b6001600084815260200190815260200160002060010160009054906101000a900473ffffffffffffffffffffffffffffffffffffffff1673ffffffffffffffffffffffffffffffffffffffff166323b872dd3330856040518463ffffffff1660e01b815260040161177e939291906134cc565b602060405180830381600087803b15801561179857600080fd5b505af11580156117ac573d6000803e3d6000fd5b505050506040513d601f19601f820116820180604052508101906117d09190612edf565b5061183482600360003373ffffffffffffffffffffffffffffffffffffffff1673ffffffffffffffffffffffffffffffffffffffff168152602001908152602001600020600086815260200190815260200160002054612df390919063ffffffff16565b600360003373ffffffffffffffffffffffffffffffffffffffff1673ffffffffffffffffffffffffffffffffffffffff168152602001908152602001600020600085815260200190815260200160002081905550505050565b6002818154811061189d57600080fd5b906000526020600020016000915090505481565b60008060018111156118ec577f4e487b7100000000000000000000000000000000000000000000000000000000600052602160045260246000fd5b836001811115611925577f4e487b7100000000000000000000000000000000000000000000000000000000600052602160045260246000fd5b14156119345760019050611939565b600090505b600060046000868152602001908152602001600020600083815260200190815260200160002090506000600181111561199b577f4e487b7100000000000000000000000000000000000000000000000000000000600052602160045260246000fd5b8460018111156119d4577f4e487b7100000000000000000000000000000000000000000000000000000000600052602160045260246000fd5b14156125b35760005b8180549050811080156119f05750600084115b156122cc57600080838381548110611a31577f4e487b7100000000000000000000000000000000000000000000000000000000600052603260045260246000fd5b9060005260206000209060070201600501549050838381548110611a7e577f4e487b7100000000000000000000000000000000000000000000000000000000600052603260045260246000fd5b9060005260206000209060070201600601548610611afd57838381548110611acf577f4e487b7100000000000000000000000000000000000000000000000000000000600052603260045260246000fd5b9060005260206000209060070201600601549150611af68287612ddd90919063ffffffff16565b9550611b33565b600091505b85821015611b3257611b1d8287612ddd90919063ffffffff16565b95508180611b2a906138eb565b925050611b02565b5b611b468183612dc790919063ffffffff16565b600360003373ffffffffffffffffffffffffffffffffffffffff1673ffffffffffffffffffffffffffffffffffffffff16815260200190815260200160002060007f45544800000000000000000000000000000000000000000000000000000000008152602001908152602001600020541015611bf8576040517f08c379a0000000000000000000000000000000000000000000000000000000008152600401611bef906135d2565b60405180910390fd5b6000600360003373ffffffffffffffffffffffffffffffffffffffff1673ffffffffffffffffffffffffffffffffffffffff16815260200190815260200160002060007f455448000000000000000000000000000000000000000000000000000000000081526020019081526020016000205490506000600360003373ffffffffffffffffffffffffffffffffffffffff1673ffffffffffffffffffffffffffffffffffffffff16815260200190815260200160002060007f4c696e6b000000000000000000000000000000000000000000000000000000008152602001908152602001600020549050611d77611cf88486612dc790919063ffffffff16565b600360003373ffffffffffffffffffffffffffffffffffffffff1673ffffffffffffffffffffffffffffffffffffffff16815260200190815260200160002060007f4554480000000000000000000000000000000000000000000000000000000000815260200190815260200160002054612ddd90919063ffffffff16565b600360003373ffffffffffffffffffffffffffffffffffffffff1673ffffffffffffffffffffffffffffffffffffffff16815260200190815260200160002060007f4554480000000000000000000000000000000000000000000000000000000000815260200190815260200160002081905550611eea611e018486612dc790919063ffffffff16565b60036000898981548110611e3e577f4e487b7100000000000000000000000000000000000000000000000000000000600052603260045260246000fd5b906000526020600020906007020160010160009054906101000a900473ffffffffffffffffffffffffffffffffffffffff1673ffffffffffffffffffffffffffffffffffffffff1673ffffffffffffffffffffffffffffffffffffffff16815260200190815260200160002060007f4554480000000000000000000000000000000000000000000000000000000000815260200190815260200160002054612df390919063ffffffff16565b60036000888881548110611f27577f4e487b7100000000000000000000000000000000000000000000000000000000600052603260045260246000fd5b906000526020600020906007020160010160009054906101000a900473ffffffffffffffffffffffffffffffffffffffff1673ffffffffffffffffffffffffffffffffffffffff1673ffffffffffffffffffffffffffffffffffffffff16815260200190815260200160002060007f455448000000000000000000000000000000000000000000000000000000000081526020019081526020016000208190555061202b84600360003373ffffffffffffffffffffffffffffffffffffffff1673ffffffffffffffffffffffffffffffffffffffff16815260200190815260200160002060008d815260200190815260200160002054612df390919063ffffffff16565b600360003373ffffffffffffffffffffffffffffffffffffffff1673ffffffffffffffffffffffffffffffffffffffff16815260200190815260200160002060008c81526020019081526020016000208190555061214c84600360008989815481106120c0577f4e487b7100000000000000000000000000000000000000000000000000000000600052603260045260246000fd5b906000526020600020906007020160010160009054906101000a900473ffffffffffffffffffffffffffffffffffffffff1673ffffffffffffffffffffffffffffffffffffffff1673ffffffffffffffffffffffffffffffffffffffff16815260200190815260200160002060008d815260200190815260200160002054612ddd90919063ffffffff16565b60036000888881548110612189577f4e487b7100000000000000000000000000000000000000000000000000000000600052603260045260246000fd5b906000526020600020906007020160010160009054906101000a900473ffffffffffffffffffffffffffffffffffffffff1673ffffffffffffffffffffffffffffffffffffffff1673ffffffffffffffffffffffffffffffffffffffff16815260200190815260200160002060008c81526020019081526020016000208190555061226784878781548110612247577f4e487b7100000000000000000000000000000000000000000000000000000000600052603260045260246000fd5b906000526020600020906007020160060154612ddd90919063ffffffff16565b8686815481106122a0577f4e487b7100000000000000000000000000000000000000000000000000000000600052603260045260246000fd5b9060005260206000209060070201600601819055505050505080806122c4906138eb565b9150506119dd565b505b6000818054905011801561232d5750600081600081548110612319577f4e487b7100000000000000000000000000000000000000000000000000000000600052603260045260246000fd5b906000526020600020906007020160060154145b156125b25760005b600182805490506123469190613816565b8110156124f9578160018261235b9190613766565b81548110612392577f4e487b7100000000000000000000000000000000000000000000000000000000600052603260045260246000fd5b90600052602060002090600702018282815481106123d9577f4e487b7100000000000000000000000000000000000000000000000000000000600052603260045260246000fd5b9060005260206000209060070201600082015481600001556001820160009054906101000a900473ffffffffffffffffffffffffffffffffffffffff168160010160006101000a81548173ffffffffffffffffffffffffffffffffffffffff021916908373ffffffffffffffffffffffffffffffffffffffff160217905550600282015481600201556003820160009054906101000a900460ff168160030160006101000a81548160ff021916908360018111156124c0577f4e487b7100000000000000000000000000000000000000000000000000000000600052602160045260246000fd5b021790555060048201548160040155600582015481600501556006820154816006015590505080806124f1906138eb565b915050612335565b5080805480612531577f4e487b7100000000000000000000000000000000000000000000000000000000600052603160045260246000fd5b60019003818190600052602060002090600702016000808201600090556001820160006101000a81549073ffffffffffffffffffffffffffffffffffffffff021916905560028201600090556003820160006101000a81549060ff0219169055600482016000905560058201600090556006820160009055505090556122ce565b5b5050505050565b60016020528060005260406000206000915090508060000154908060010160009054906101000a900473ffffffffffffffffffffffffffffffffffffffff16905082565b612606612e09565b73ffffffffffffffffffffffffffffffffffffffff16612624612738565b73ffffffffffffffffffffffffffffffffffffffff161461267a576040517f08c379a000000000000000000000000000000000000000000000000000000000815260040161267190613612565b60405180910390fd5b600073ffffffffffffffffffffffffffffffffffffffff1660008054906101000a900473ffffffffffffffffffffffffffffffffffffffff1673ffffffffffffffffffffffffffffffffffffffff167f8be0079c531659141344cd1fd0a4f28419497f9722a3daafe3b4186f6b6457e060405160405180910390a360008060006101000a81548173ffffffffffffffffffffffffffffffffffffffff021916908373ffffffffffffffffffffffffffffffffffffffff160217905550565b60008060009054906101000a900473ffffffffffffffffffffffffffffffffffffffff16905090565b612769612e09565b73ffffffffffffffffffffffffffffffffffffffff16612787612738565b73ffffffffffffffffffffffffffffffffffffffff16146127dd576040517f08c379a00000000000000000000000000000000000000000000000000000000081526004016127d490613612565b60405180910390fd5b60405180604001604052808381526020018273ffffffffffffffffffffffffffffffffffffffff16815250600160008481526020019081526020016000206000820151816000015560208201518160010160006101000a81548173ffffffffffffffffffffffffffffffffffffffff021916908373ffffffffffffffffffffffffffffffffffffffff16021790555090505060028290806001815401808255809150506001900390600052602060002001600090919091909150555050565b600460205282600052604060002060205281600052604060002081815481106128c457600080fd5b906000526020600020906007020160009250925050508060000154908060010160009054906101000a900473ffffffffffffffffffffffffffffffffffffffff16908060020154908060030160009054906101000a900460ff16908060040154908060050154908060060154905087565b6060600460008481526020019081526020016000206000836001811115612985577f4e487b7100000000000000000000000000000000000000000000000000000000600052602160045260246000fd5b8152602001908152602001600020805480602002602001604051908101604052809291908181526020016000905b82821015612af457838290600052602060002090600702016040518060e0016040529081600082015481526020016001820160009054906101000a900473ffffffffffffffffffffffffffffffffffffffff1673ffffffffffffffffffffffffffffffffffffffff1673ffffffffffffffffffffffffffffffffffffffff168152602001600282015481526020016003820160009054906101000a900460ff166001811115612a8b577f4e487b7100000000000000000000000000000000000000000000000000000000600052602160045260246000fd5b6001811115612ac3577f4e487b7100000000000000000000000000000000000000000000000000000000600052602160045260246000fd5b81526020016004820154815260200160058201548152602001600682015481525050815260200190600101906129b3565b50505050905092915050565b612b08612e09565b73ffffffffffffffffffffffffffffffffffffffff16612b26612738565b73ffffffffffffffffffffffffffffffffffffffff1614612b7c576040517f08c379a0000000000000000000000000000000000000000000000000000000008152600401612b7390613612565b60405180910390fd5b600073ffffffffffffffffffffffffffffffffffffffff168173ffffffffffffffffffffffffffffffffffffffff161415612bec576040517f08c379a0000000000000000000000000000000000000000000000000000000008152600401612be390613592565b60405180910390fd5b8073ffffffffffffffffffffffffffffffffffffffff1660008054906101000a900473ffffffffffffffffffffffffffffffffffffffff1673ffffffffffffffffffffffffffffffffffffffff167f8be0079c531659141344cd1fd0a4f28419497f9722a3daafe3b4186f6b6457e060405160405180910390a3806000806101000a81548173ffffffffffffffffffffffffffffffffffffffff021916908373ffffffffffffffffffffffffffffffffffffffff16021790555050565b612d2c34600360003373ffffffffffffffffffffffffffffffffffffffff1673ffffffffffffffffffffffffffffffffffffffff16815260200190815260200160002060007f4554480000000000000000000000000000000000000000000000000000000000815260200190815260200160002054612df390919063ffffffff16565b600360003373ffffffffffffffffffffffffffffffffffffffff1673ffffffffffffffffffffffffffffffffffffffff16815260200190815260200160002060007f4554480000000000000000000000000000000000000000000000000000000000815260200190815260200160002081905550565b6003602052816000526040600020602052806000526040600020600091509150505481565b60008183612dd591906137bc565b905092915050565b60008183612deb9190613816565b905092915050565b60008183612e019190613766565b905092915050565b600033905090565b600081359050612e20816139a6565b92915050565b600081519050612e35816139bd565b92915050565b600081359050612e4a816139d4565b92915050565b600081359050612e5f816139eb565b92915050565b600081359050612e74816139fb565b92915050565b600060208284031215612e8c57600080fd5b6000612e9a84828501612e11565b91505092915050565b60008060408385031215612eb657600080fd5b6000612ec485828601612e11565b9250506020612ed585828601612e3b565b9150509250929050565b600060208284031215612ef157600080fd5b6000612eff84828501612e26565b91505092915050565b600060208284031215612f1a57600080fd5b6000612f2884828501612e3b565b91505092915050565b60008060408385031215612f4457600080fd5b6000612f5285828601612e3b565b9250506020612f6385828601612e11565b9150509250929050565b60008060408385031215612f8057600080fd5b6000612f8e85828601612e3b565b9250506020612f9f85828601612e50565b9150509250929050565b600080600060608486031215612fbe57600080fd5b6000612fcc86828701612e3b565b9350506020612fdd86828701612e50565b9250506040612fee86828701612e65565b9150509250925092565b6000806000806080858703121561300e57600080fd5b600061301c87828801612e3b565b945050602061302d87828801612e50565b935050604061303e87828801612e65565b925050606061304f87828801612e65565b91505092959194509250565b6000806040838503121561306e57600080fd5b600061307c85828601612e3b565b925050602061308d85828601612e65565b9150509250929050565b6000806000606084860312156130ac57600080fd5b60006130ba86828701612e3b565b93505060206130cb86828701612e65565b92505060406130dc86828701612e65565b9150509250925092565b6000602082840312156130f857600080fd5b600061310684828501612e65565b91505092915050565b600061311b8383613405565b60e08301905092915050565b6131308161384a565b82525050565b61313f8161384a565b82525050565b60006131508261372c565b61315a8185613744565b93506131658361371c565b8060005b8381101561319657815161317d888261310f565b975061318883613737565b925050600181019050613169565b5085935050505092915050565b6131ac81613868565b82525050565b6131bb81613868565b82525050565b6131ca816138af565b82525050565b6131d9816138af565b82525050565b60006131ec602683613755565b91507f4f776e61626c653a206e6577206f776e657220697320746865207a65726f206160008301527f64647265737300000000000000000000000000000000000000000000000000006020830152604082019050919050565b6000613252601083613755565b91507f456e746572206d6f726520746f6b656e000000000000000000000000000000006000830152602082019050919050565b6000613292601983613755565b91507f455448206e6f2073756666696369656e7420636865636b2031000000000000006000830152602082019050919050565b60006132d2601483613755565b91507f546f6b656e206e6f742073756666696369656e740000000000000000000000006000830152602082019050919050565b6000613312602083613755565b91507f4f776e61626c653a2063616c6c6572206973206e6f7420746865206f776e65726000830152602082019050919050565b6000613352601583613755565b91507f62616c616e6365206e6f2073756666696369656e7400000000000000000000006000830152602082019050919050565b6000613392600f83613755565b91507f4e6f20746f6b656e207469636b657200000000000000000000000000000000006000830152602082019050919050565b60006133d2601283613755565b91507f457468206e6f742073756666696369656e7400000000000000000000000000006000830152602082019050919050565b60e08201600082015161341b6000850182613493565b50602082015161342e6020850182613127565b50604082015161344160408501826131a3565b50606082015161345460608501826131c1565b5060808201516134676080850182613493565b5060a082015161347a60a0850182613493565b5060c082015161348d60c0850182613493565b50505050565b61349c816138a5565b82525050565b6134ab816138a5565b82525050565b60006020820190506134c66000830184613136565b92915050565b60006060820190506134e16000830186613136565b6134ee6020830185613136565b6134fb60408301846134a2565b949350505050565b60006040820190506135186000830185613136565b61352560208301846134a2565b9392505050565b600060208201905081810360008301526135468184613145565b905092915050565b600060208201905061356360008301846131b2565b92915050565b600060408201905061357e60008301856131b2565b61358b6020830184613136565b9392505050565b600060208201905081810360008301526135ab816131df565b9050919050565b600060208201905081810360008301526135cb81613245565b9050919050565b600060208201905081810360008301526135eb81613285565b9050919050565b6000602082019050818103600083015261360b816132c5565b9050919050565b6000602082019050818103600083015261362b81613305565b9050919050565b6000602082019050818103600083015261364b81613345565b9050919050565b6000602082019050818103600083015261366b81613385565b9050919050565b6000602082019050818103600083015261368b816133c5565b9050919050565b60006020820190506136a760008301846134a2565b92915050565b600060e0820190506136c2600083018a6134a2565b6136cf6020830189613136565b6136dc60408301886131b2565b6136e960608301876131d0565b6136f660808301866134a2565b61370360a08301856134a2565b61371060c08301846134a2565b98975050505050505050565b6000819050602082019050919050565b600081519050919050565b6000602082019050919050565b600082825260208201905092915050565b600082825260208201905092915050565b6000613771826138a5565b915061377c836138a5565b9250827fffffffffffffffffffffffffffffffffffffffffffffffffffffffffffffffff038211156137b1576137b0613934565b5b828201905092915050565b60006137c7826138a5565b91506137d2836138a5565b9250817fffffffffffffffffffffffffffffffffffffffffffffffffffffffffffffffff048311821515161561380b5761380a613934565b5b828202905092915050565b6000613821826138a5565b915061382c836138a5565b92508282101561383f5761383e613934565b5b828203905092915050565b600061385582613885565b9050919050565b60008115159050919050565b6000819050919050565b600081905061388082613992565b919050565b600073ffffffffffffffffffffffffffffffffffffffff82169050919050565b6000819050919050565b60006138ba82613872565b9050919050565b60006138cc826138a5565b915060008214156138e0576138df613934565b5b600182039050919050565b60006138f6826138a5565b91507fffffffffffffffffffffffffffffffffffffffffffffffffffffffffffffffff82141561392957613928613934565b5b600182019050919050565b7f4e487b7100000000000000000000000000000000000000000000000000000000600052601160045260246000fd5b7f4e487b7100000000000000000000000000000000000000000000000000000000600052602160045260246000fd5b600281106139a3576139a2613963565b5b50565b6139af8161384a565b81146139ba57600080fd5b50565b6139c68161385c565b81146139d157600080fd5b50565b6139dd81613868565b81146139e857600080fd5b50565b600281106139f857600080fd5b50565b613a04816138a5565b8114613a0f57600080fd5b5056fea264697066735822122089da6f79f001a11993e6266b783441afa7824cd0541d6dcc10b6230571570c5564736f6c63430008000033",
  "immutableReferences": {},
  "source": "pragma solidity 0.8.0;\r\npragma experimental ABIEncoderV2;\r\n\r\nimport \"./Wallet.sol\";\r\n\r\ncontract Dex is Wallet{\r\n    using SafeMath for uint;\r\n\r\n    enum Side{\r\n        BUY,\r\n        SELL\r\n    }\r\n\r\n    struct Order{\r\n        uint id;\r\n        address trader;\r\n        bytes32 ticker;\r\n        Side side;\r\n        uint amount;\r\n        uint price;\r\n        uint availableFill;\r\n    }\r\n\r\n    mapping(bytes32 => mapping(uint => Order[])) public OrderBook;\r\n\r\n    function getOrderBook(bytes32 ticker, Side side) public view returns(Order[] memory) {\r\n        return OrderBook[ticker][uint(side)];\r\n    }\r\n\r\n    function createlimitOrder(bytes32 ticker, Side side, uint amount, uint price) external {\r\n\r\n        if(uint(side) == 0){ \r\n            require(balance[msg.sender][bytes32(\"ETH\")] >= amount.mul(price),\"Eth not sufficient\");\r\n        }\r\n        else {\r\n            require(balance[msg.sender][ticker] >= amount,\"Token not sufficient\");\r\n        }\r\n        \r\n        OrderBook[ticker][uint(side)].push(\r\n            Order(OrderBook[ticker][uint(side)].length, msg.sender, ticker, side, amount, price, amount)\r\n            );\r\n\r\n        Order[] storage orders = OrderBook[ticker][uint(side)];\r\n\r\n        uint i = orders.length > 0 ? orders.length - 1 : 0;\r\n        if(side == Side.BUY && i > 0){\r\n            while(i > 0){\r\n                if(orders[i].price > orders[i - 1].price){\r\n                    Order memory pool = orders[i - 1];\r\n                    orders[i - 1] = orders[i];\r\n                    orders[i] = pool;    \r\n                }\r\n                else {\r\n                    break;\r\n                }\r\n                i--;\r\n            }\r\n        }\r\n\r\n        else if(side == Side.SELL && i > 0){\r\n            while(i > 0){\r\n                if(orders[i].price < orders[i - 1].price){\r\n                    Order memory pool = orders[i - 1];\r\n                    orders[i - 1] = orders[i];\r\n                    orders[i] = pool;    \r\n                }\r\n                else {\r\n                    break;\r\n                }\r\n                i--;\r\n            }\r\n        }\r\n    }\r\n\r\n    function createMarketOrder(bytes32 ticker, Side side, uint orderamount) external {\r\n\r\n        uint orderSide;\r\n        if(side == Side.BUY){\r\n            orderSide = 1;\r\n        }\r\n        else\r\n            orderSide = 0;\r\n\r\n        Order[] storage orders = OrderBook[ticker][orderSide];\r\n\r\n        if(side == Side.BUY){\r\n            for(uint i = 0; i < orders.length && orderamount > 0; i++){\r\n                uint canfill = 0;\r\n                uint cost = orders[i].price;\r\n                if(orderamount >= orders[i].availableFill){\r\n                    canfill = orders[i].availableFill;\r\n                    orderamount = orderamount.sub(canfill);\r\n                }\r\n                else {\r\n                    for( canfill = 0; canfill < orderamount; canfill++){\r\n                        orderamount = orderamount.sub(canfill);\r\n                    }\r\n                    \r\n                }\r\n                require(balance[msg.sender][\"ETH\"] >= canfill.mul(cost), \"ETH no sufficient check 1\");\r\n                uint prevETH = balance[msg.sender][bytes32(\"ETH\")]; // Sender ETH must decrease\r\n                uint prevToken = balance[msg.sender][bytes32(\"Link\")]; // Sender Token must increase\r\n                //transfer ETH\r\n                balance[msg.sender][bytes32(\"ETH\")] = balance[msg.sender][bytes32(\"ETH\")].sub(canfill.mul(cost));\r\n                balance[orders[i].trader][bytes32(\"ETH\")] = balance[orders[i].trader][bytes32(\"ETH\")].add(canfill.mul(cost));\r\n                //transfer Token\r\n                balance[msg.sender][ticker] = balance[msg.sender][ticker].add(canfill);\r\n                balance[orders[i].trader][ticker] = balance[orders[i].trader][ticker].sub(canfill);\r\n                orders[i].availableFill = orders[i].availableFill.sub(canfill);\r\n                //orderamount -= canfill;\r\n                //check result\r\n            }\r\n            \r\n            while(orders.length > 0 && orders[0].availableFill == 0){\r\n                for(uint i = 0; i < orders.length - 1; i++){\r\n                    orders[i] = orders[i + 1];\r\n                }\r\n                orders.pop();\r\n            }\r\n            \r\n        }\r\n    }\r\n\r\n}",
  "sourcePath": "C:/Users/Lenovo/Desktop/ethereum201/project_decentralized_exchange/contracts/dex.sol",
  "compiler": {
    "name": "solc",
    "version": "0.8.0+commit.c7dfd78e.Emscripten.clang"
  },
  "schemaVersion": "3.4.1",
  "updatedAt": "2021-06-27T16:15:08.869Z",
  "networkType": "ethereum",
  "devdoc": {
    "kind": "dev",
    "methods": {
      "owner()": {
        "details": "Returns the address of the current owner."
      },
      "renounceOwnership()": {
        "details": "Leaves the contract without owner. It will not be possible to call `onlyOwner` functions anymore. Can only be called by the current owner. NOTE: Renouncing ownership will leave the contract without an owner, thereby removing any functionality that is only available to the owner."
      },
      "transferOwnership(address)": {
        "details": "Transfers ownership of the contract to a new account (`newOwner`). Can only be called by the current owner."
      }
    },
    "version": 1
  },
  "userdoc": {
    "kind": "user",
    "methods": {},
    "version": 1
  }
}