{
  "contractName": "Wallet",
  "abi": [
    {
      "anonymous": false,
      "inputs": [
        {
          "indexed": true,
          "internalType": "address",
          "name": "previousOwner",
          "type": "address"
        },
        {
          "indexed": true,
          "internalType": "address",
          "name": "newOwner",
          "type": "address"
        }
      ],
      "name": "OwnershipTransferred",
      "type": "event"
    },
    {
      "inputs": [
        {
          "internalType": "address",
          "name": "",
          "type": "address"
        },
        {
          "internalType": "bytes32",
          "name": "",
          "type": "bytes32"
        }
      ],
      "name": "balance",
      "outputs": [
        {
          "internalType": "uint256",
          "name": "",
          "type": "uint256"
        }
      ],
      "stateMutability": "view",
      "type": "function"
    },
    {
      "inputs": [],
      "name": "owner",
      "outputs": [
        {
          "internalType": "address",
          "name": "",
          "type": "address"
        }
      ],
      "stateMutability": "view",
      "type": "function"
    },
    {
      "inputs": [],
      "name": "renounceOwnership",
      "outputs": [],
      "stateMutability": "nonpayable",
      "type": "function"
    },
    {
      "inputs": [
        {
          "internalType": "uint256",
          "name": "",
          "type": "uint256"
        }
      ],
      "name": "tokenlist",
      "outputs": [
        {
          "internalType": "bytes32",
          "name": "",
          "type": "bytes32"
        }
      ],
      "stateMutability": "view",
      "type": "function"
    },
    {
      "inputs": [
        {
          "internalType": "bytes32",
          "name": "",
          "type": "bytes32"
        }
      ],
      "name": "tokenmapping",
      "outputs": [
        {
          "internalType": "bytes32",
          "name": "ticker",
          "type": "bytes32"
        },
        {
          "internalType": "address",
          "name": "tokenAddress",
          "type": "address"
        }
      ],
      "stateMutability": "view",
      "type": "function"
    },
    {
      "inputs": [
        {
          "internalType": "address",
          "name": "newOwner",
          "type": "address"
        }
      ],
      "name": "transferOwnership",
      "outputs": [],
      "stateMutability": "nonpayable",
      "type": "function"
    },
    {
      "inputs": [
        {
          "internalType": "bytes32",
          "name": "ticker",
          "type": "bytes32"
        },
        {
          "internalType": "address",
          "name": "tokenAddress",
          "type": "address"
        }
      ],
      "name": "addToken",
      "outputs": [],
      "stateMutability": "nonpayable",
      "type": "function"
    },
    {
      "inputs": [
        {
          "internalType": "bytes32",
          "name": "ticker",
          "type": "bytes32"
        },
        {
          "internalType": "uint256",
          "name": "amount",
          "type": "uint256"
        }
      ],
      "name": "deposit",
      "outputs": [],
      "stateMutability": "nonpayable",
      "type": "function"
    },
    {
      "inputs": [
        {
          "internalType": "bytes32",
          "name": "ticker",
          "type": "bytes32"
        },
        {
          "internalType": "uint256",
          "name": "amount",
          "type": "uint256"
        }
      ],
      "name": "withdraw",
      "outputs": [],
      "stateMutability": "nonpayable",
      "type": "function"
    },
    {
      "inputs": [],
      "name": "depositETH",
      "outputs": [],
      "stateMutability": "payable",
      "type": "function"
    },
    {
      "inputs": [],
      "name": "getETH",
      "outputs": [
        {
          "internalType": "uint256",
          "name": "",
          "type": "uint256"
        }
      ],
      "stateMutability": "view",
      "type": "function"
    }
  ],
  "bytecode": "0x608060405234801561001057600080fd5b5060006100216100c460201b60201c565b9050806000806101000a81548173ffffffffffffffffffffffffffffffffffffffff021916908373ffffffffffffffffffffffffffffffffffffffff1602179055508073ffffffffffffffffffffffffffffffffffffffff16600073ffffffffffffffffffffffffffffffffffffffff167f8be0079c531659141344cd1fd0a4f28419497f9722a3daafe3b4186f6b6457e060405160405180910390a3506100cc565b600033905090565b61147a806100db6000396000f3fe60806040526004361061009c5760003560e01c8063715018a611610064578063715018a6146101995780638da5cb5b146101b05780639776aacf146101db578063f2fde38b14610204578063f6326fb31461022d578063feb8be82146102375761009c565b8063040cf020146100a157806314f6c3be146100ca5780631de26e16146100f55780634f3cb5411461011e5780635e7a9d471461015b575b600080fd5b3480156100ad57600080fd5b506100c860048036038101906100c39190610f5a565b610274565b005b3480156100d657600080fd5b506100df61052e565b6040516100ec91906112b1565b60405180910390f35b34801561010157600080fd5b5061011c60048036038101906101179190610f5a565b6105a6565b005b34801561012a57600080fd5b5061014560048036038101906101409190610f96565b610812565b60405161015291906111cd565b60405180910390f35b34801561016757600080fd5b50610182600480360381019061017d9190610ef5565b610836565b6040516101909291906111e8565b60405180910390f35b3480156101a557600080fd5b506101ae61087a565b005b3480156101bc57600080fd5b506101c56109b4565b6040516101d29190611152565b60405180910390f35b3480156101e757600080fd5b5061020260048036038101906101fd9190610f1e565b6109dd565b005b34801561021057600080fd5b5061022b60048036038101906102269190610e67565b610b18565b005b610235610cc1565b005b34801561024357600080fd5b5061025e60048036038101906102599190610e90565b610dba565b60405161026b91906112b1565b60405180910390f35b81600073ffffffffffffffffffffffffffffffffffffffff166001600083815260200190815260200160002060010160009054906101000a900473ffffffffffffffffffffffffffffffffffffffff1673ffffffffffffffffffffffffffffffffffffffff16141561031b576040517f08c379a000000000000000000000000000000000000000000000000000000000815260040161031290611291565b60405180910390fd5b81600360003373ffffffffffffffffffffffffffffffffffffffff1673ffffffffffffffffffffffffffffffffffffffff16815260200190815260200160002060008581526020019081526020016000205410156103ae576040517f08c379a00000000000000000000000000000000000000000000000000000000081526004016103a590611271565b60405180910390fd5b61041182600360003373ffffffffffffffffffffffffffffffffffffffff1673ffffffffffffffffffffffffffffffffffffffff168152602001908152602001600020600086815260200190815260200160002054610ddf90919063ffffffff16565b600360003373ffffffffffffffffffffffffffffffffffffffff1673ffffffffffffffffffffffffffffffffffffffff1681526020019081526020016000206000858152602001908152602001600020819055506001600084815260200190815260200160002060010160009054906101000a900473ffffffffffffffffffffffffffffffffffffffff1673ffffffffffffffffffffffffffffffffffffffff1663a9059cbb33846040518363ffffffff1660e01b81526004016104d69291906111a4565b602060405180830381600087803b1580156104f057600080fd5b505af1158015610504573d6000803e3d6000fd5b505050506040513d601f19601f820116820180604052508101906105289190610ecc565b50505050565b6000600360003373ffffffffffffffffffffffffffffffffffffffff1673ffffffffffffffffffffffffffffffffffffffff16815260200190815260200160002060007f4554480000000000000000000000000000000000000000000000000000000000815260200190815260200160002054905090565b81600073ffffffffffffffffffffffffffffffffffffffff166001600083815260200190815260200160002060010160009054906101000a900473ffffffffffffffffffffffffffffffffffffffff1673ffffffffffffffffffffffffffffffffffffffff16141561064d576040517f08c379a000000000000000000000000000000000000000000000000000000000815260040161064490611291565b60405180910390fd5b60008211610690576040517f08c379a000000000000000000000000000000000000000000000000000000000815260040161068790611231565b60405180910390fd5b6001600084815260200190815260200160002060010160009054906101000a900473ffffffffffffffffffffffffffffffffffffffff1673ffffffffffffffffffffffffffffffffffffffff166323b872dd3330856040518463ffffffff1660e01b81526004016107039392919061116d565b602060405180830381600087803b15801561071d57600080fd5b505af1158015610731573d6000803e3d6000fd5b505050506040513d601f19601f820116820180604052508101906107559190610ecc565b506107b982600360003373ffffffffffffffffffffffffffffffffffffffff1673ffffffffffffffffffffffffffffffffffffffff168152602001908152602001600020600086815260200190815260200160002054610df590919063ffffffff16565b600360003373ffffffffffffffffffffffffffffffffffffffff1673ffffffffffffffffffffffffffffffffffffffff168152602001908152602001600020600085815260200190815260200160002081905550505050565b6002818154811061082257600080fd5b906000526020600020016000915090505481565b60016020528060005260406000206000915090508060000154908060010160009054906101000a900473ffffffffffffffffffffffffffffffffffffffff16905082565b610882610e0b565b73ffffffffffffffffffffffffffffffffffffffff166108a06109b4565b73ffffffffffffffffffffffffffffffffffffffff16146108f6576040517f08c379a00000000000000000000000000000000000000000000000000000000081526004016108ed90611251565b60405180910390fd5b600073ffffffffffffffffffffffffffffffffffffffff1660008054906101000a900473ffffffffffffffffffffffffffffffffffffffff1673ffffffffffffffffffffffffffffffffffffffff167f8be0079c531659141344cd1fd0a4f28419497f9722a3daafe3b4186f6b6457e060405160405180910390a360008060006101000a81548173ffffffffffffffffffffffffffffffffffffffff021916908373ffffffffffffffffffffffffffffffffffffffff160217905550565b60008060009054906101000a900473ffffffffffffffffffffffffffffffffffffffff16905090565b6109e5610e0b565b73ffffffffffffffffffffffffffffffffffffffff16610a036109b4565b73ffffffffffffffffffffffffffffffffffffffff1614610a59576040517f08c379a0000000000000000000000000000000000000000000000000000000008152600401610a5090611251565b60405180910390fd5b60405180604001604052808381526020018273ffffffffffffffffffffffffffffffffffffffff16815250600160008481526020019081526020016000206000820151816000015560208201518160010160006101000a81548173ffffffffffffffffffffffffffffffffffffffff021916908373ffffffffffffffffffffffffffffffffffffffff16021790555090505060028290806001815401808255809150506001900390600052602060002001600090919091909150555050565b610b20610e0b565b73ffffffffffffffffffffffffffffffffffffffff16610b3e6109b4565b73ffffffffffffffffffffffffffffffffffffffff1614610b94576040517f08c379a0000000000000000000000000000000000000000000000000000000008152600401610b8b90611251565b60405180910390fd5b600073ffffffffffffffffffffffffffffffffffffffff168173ffffffffffffffffffffffffffffffffffffffff161415610c04576040517f08c379a0000000000000000000000000000000000000000000000000000000008152600401610bfb90611211565b60405180910390fd5b8073ffffffffffffffffffffffffffffffffffffffff1660008054906101000a900473ffffffffffffffffffffffffffffffffffffffff1673ffffffffffffffffffffffffffffffffffffffff167f8be0079c531659141344cd1fd0a4f28419497f9722a3daafe3b4186f6b6457e060405160405180910390a3806000806101000a81548173ffffffffffffffffffffffffffffffffffffffff021916908373ffffffffffffffffffffffffffffffffffffffff16021790555050565b610d4434600360003373ffffffffffffffffffffffffffffffffffffffff1673ffffffffffffffffffffffffffffffffffffffff16815260200190815260200160002060007f4554480000000000000000000000000000000000000000000000000000000000815260200190815260200160002054610df590919063ffffffff16565b600360003373ffffffffffffffffffffffffffffffffffffffff1673ffffffffffffffffffffffffffffffffffffffff16815260200190815260200160002060007f4554480000000000000000000000000000000000000000000000000000000000815260200190815260200160002081905550565b6003602052816000526040600020602052806000526040600020600091509150505481565b60008183610ded9190611333565b905092915050565b60008183610e0391906112dd565b905092915050565b600033905090565b600081359050610e22816113e8565b92915050565b600081519050610e37816113ff565b92915050565b600081359050610e4c81611416565b92915050565b600081359050610e618161142d565b92915050565b600060208284031215610e7957600080fd5b6000610e8784828501610e13565b91505092915050565b60008060408385031215610ea357600080fd5b6000610eb185828601610e13565b9250506020610ec285828601610e3d565b9150509250929050565b600060208284031215610ede57600080fd5b6000610eec84828501610e28565b91505092915050565b600060208284031215610f0757600080fd5b6000610f1584828501610e3d565b91505092915050565b60008060408385031215610f3157600080fd5b6000610f3f85828601610e3d565b9250506020610f5085828601610e13565b9150509250929050565b60008060408385031215610f6d57600080fd5b6000610f7b85828601610e3d565b9250506020610f8c85828601610e52565b9150509250929050565b600060208284031215610fa857600080fd5b6000610fb684828501610e52565b91505092915050565b610fc881611367565b82525050565b610fd781611385565b82525050565b6000610fea6026836112cc565b91507f4f776e61626c653a206e6577206f776e657220697320746865207a65726f206160008301527f64647265737300000000000000000000000000000000000000000000000000006020830152604082019050919050565b60006110506010836112cc565b91507f456e746572206d6f726520746f6b656e000000000000000000000000000000006000830152602082019050919050565b60006110906020836112cc565b91507f4f776e61626c653a2063616c6c6572206973206e6f7420746865206f776e65726000830152602082019050919050565b60006110d06015836112cc565b91507f62616c616e6365206e6f2073756666696369656e7400000000000000000000006000830152602082019050919050565b6000611110600f836112cc565b91507f4e6f20746f6b656e207469636b657200000000000000000000000000000000006000830152602082019050919050565b61114c816113af565b82525050565b60006020820190506111676000830184610fbf565b92915050565b60006060820190506111826000830186610fbf565b61118f6020830185610fbf565b61119c6040830184611143565b949350505050565b60006040820190506111b96000830185610fbf565b6111c66020830184611143565b9392505050565b60006020820190506111e26000830184610fce565b92915050565b60006040820190506111fd6000830185610fce565b61120a6020830184610fbf565b9392505050565b6000602082019050818103600083015261122a81610fdd565b9050919050565b6000602082019050818103600083015261124a81611043565b9050919050565b6000602082019050818103600083015261126a81611083565b9050919050565b6000602082019050818103600083015261128a816110c3565b9050919050565b600060208201905081810360008301526112aa81611103565b9050919050565b60006020820190506112c66000830184611143565b92915050565b600082825260208201905092915050565b60006112e8826113af565b91506112f3836113af565b9250827fffffffffffffffffffffffffffffffffffffffffffffffffffffffffffffffff03821115611328576113276113b9565b5b828201905092915050565b600061133e826113af565b9150611349836113af565b92508282101561135c5761135b6113b9565b5b828203905092915050565b60006113728261138f565b9050919050565b60008115159050919050565b6000819050919050565b600073ffffffffffffffffffffffffffffffffffffffff82169050919050565b6000819050919050565b7f4e487b7100000000000000000000000000000000000000000000000000000000600052601160045260246000fd5b6113f181611367565b81146113fc57600080fd5b50565b61140881611379565b811461141357600080fd5b50565b61141f81611385565b811461142a57600080fd5b50565b611436816113af565b811461144157600080fd5b5056fea26469706673582212203e2f01d3d2ce662e2cb71231673468b0bf42e4c4665bb6368dde1d3d5b3053e864736f6c63430008000033",
  "immutableReferences": {},
  "source": "pragma solidity 0.8.0;\r\n\r\nimport \"../node_modules/@OpenZeppelin/contracts/token/ERC20/IERC20.sol\";\r\nimport \"../node_modules/@OpenZeppelin/contracts/utils/math/SafeMath.sol\";\r\nimport \"../node_modules/@OpenZeppelin/contracts/access/Ownable.sol\";\r\n\r\ncontract Wallet is Ownable{\r\n    using SafeMath for uint;\r\n\r\n    struct Token{\r\n        bytes32 ticker;\r\n        address tokenAddress;\r\n    }\r\n\r\n    mapping(bytes32 => Token) public tokenmapping;\r\n    bytes32[] public tokenlist;\r\n\r\n    mapping(address => mapping(bytes32 => uint)) public balance;\r\n\r\n    modifier TokenExist(bytes32 ticker){\r\n         require(tokenmapping[ticker].tokenAddress != address(0), \"No token ticker\");\r\n         _;\r\n    }\r\n\r\n    function addToken(bytes32 ticker, address tokenAddress) onlyOwner external{\r\n        tokenmapping[ticker] = Token(ticker, tokenAddress);\r\n        tokenlist.push(ticker);\r\n    }\r\n\r\n    function deposit(bytes32 ticker, uint amount) TokenExist(ticker) external {\r\n        require(amount > 0, \"Enter more token\");\r\n\r\n        IERC20(tokenmapping[ticker].tokenAddress).transferFrom(msg.sender,address(this), amount);\r\n        balance[msg.sender][ticker] = balance[msg.sender][ticker].add(amount);\r\n    }\r\n\r\n    function withdraw(bytes32 ticker, uint amount) TokenExist(ticker) external {\r\n        require(balance[msg.sender][ticker] >= amount, \"balance no sufficient\");\r\n\r\n        balance[msg.sender][ticker] = balance[msg.sender][ticker].sub(amount);\r\n        IERC20(tokenmapping[ticker].tokenAddress).transfer(msg.sender, amount);\r\n    }\r\n\r\n    function depositETH() external payable {\r\n        balance[msg.sender][bytes32(\"ETH\")] = balance[msg.sender][bytes32(\"ETH\")].add(msg.value);\r\n    }\r\n\r\n    function getETH() public view returns(uint) {\r\n        return  balance[msg.sender][bytes32(\"ETH\")];\r\n    }\r\n\r\n\r\n}",
  "sourcePath": "C:/Users/Lenovo/Desktop/ethereum201/project_decentralized_exchange/contracts/wallet.sol",
  "compiler": {
    "name": "solc",
    "version": "0.8.0+commit.c7dfd78e.Emscripten.clang"
  },
  "schemaVersion": "3.4.1",
  "updatedAt": "2021-06-03T04:54:55.973Z",
  "devdoc": {
    "kind": "dev",
    "methods": {
      "owner()": {
        "details": "Returns the address of the current owner."
      },
      "renounceOwnership()": {
        "details": "Leaves the contract without owner. It will not be possible to call `onlyOwner` functions anymore. Can only be called by the current owner. NOTE: Renouncing ownership will leave the contract without an owner, thereby removing any functionality that is only available to the owner."
      },
      "transferOwnership(address)": {
        "details": "Transfers ownership of the contract to a new account (`newOwner`). Can only be called by the current owner."
      }
    },
    "version": 1
  },
  "userdoc": {
    "kind": "user",
    "methods": {},
    "version": 1
  }
}